{
  "contractName": "Main",
  "abi": [
    {
      "constant": true,
      "inputs": [],
      "name": "studentStorage",
      "outputs": [
        {
          "name": "",
          "type": "address"
        }
      ],
      "payable": false,
      "stateMutability": "view",
      "type": "function",
      "signature": "0x56ae3385"
    },
    {
      "inputs": [],
      "payable": true,
      "stateMutability": "payable",
      "type": "constructor",
      "signature": "constructor"
    },
    {
      "constant": false,
      "inputs": [
        {
          "name": "_name",
          "type": "string"
        },
        {
          "name": "_id",
          "type": "uint256"
        }
      ],
      "name": "addStudent",
      "outputs": [],
      "payable": false,
      "stateMutability": "nonpayable",
      "type": "function",
      "signature": "0x0e5eeef7"
    },
    {
      "constant": true,
      "inputs": [
        {
          "name": "_id",
          "type": "uint256"
        }
      ],
      "name": "getStudentName",
      "outputs": [
        {
          "name": "",
          "type": "string"
        }
      ],
      "payable": false,
      "stateMutability": "view",
      "type": "function",
      "signature": "0x9ac43876"
    }
  ],
  "bytecode": "0x608060405261000c61006d565b604051809103906000f080158015610028573d6000803e3d6000fd5b506000806101000a81548173ffffffffffffffffffffffffffffffffffffffff021916908373ffffffffffffffffffffffffffffffffffffffff16021790555061007d565b6040516104118061055783390190565b6104cb8061008c6000396000f3fe608060405260043610610057576000357c0100000000000000000000000000000000000000000000000000000000900463ffffffff1680630e5eeef71461005c57806356ae33851461012e5780639ac4387614610185575b600080fd5b34801561006857600080fd5b5061012c6004803603604081101561007f57600080fd5b810190808035906020019064010000000081111561009c57600080fd5b8201836020820111156100ae57600080fd5b803590602001918460018302840111640100000000831117156100d057600080fd5b91908080601f016020809104026020016040519081016040528093929190818152602001838380828437600081840152601f19601f82011690508083019250505050505050919291929080359060200190929190505050610239565b005b34801561013a57600080fd5b50610143610352565b604051808273ffffffffffffffffffffffffffffffffffffffff1673ffffffffffffffffffffffffffffffffffffffff16815260200191505060405180910390f35b34801561019157600080fd5b506101be600480360360208110156101a857600080fd5b8101908080359060200190929190505050610377565b6040518080602001828103825283818151815260200191508051906020019080838360005b838110156101fe5780820151818401526020810190506101e3565b50505050905090810190601f16801561022b5780820380516001836020036101000a031916815260200191505b509250505060405180910390f35b6000809054906101000a900473ffffffffffffffffffffffffffffffffffffffff1673ffffffffffffffffffffffffffffffffffffffff16630e5eeef783836040518363ffffffff167c01000000000000000000000000000000000000000000000000000000000281526004018080602001838152602001828103825284818151815260200191508051906020019080838360005b838110156102e95780820151818401526020810190506102ce565b50505050905090810190601f1680156103165780820380516001836020036101000a031916815260200191505b509350505050600060405180830381600087803b15801561033657600080fd5b505af115801561034a573d6000803e3d6000fd5b505050505050565b6000809054906101000a900473ffffffffffffffffffffffffffffffffffffffff1681565b60606000809054906101000a900473ffffffffffffffffffffffffffffffffffffffff1673ffffffffffffffffffffffffffffffffffffffff16636b8ff574836040518263ffffffff167c01000000000000000000000000000000000000000000000000000000000281526004018082815260200191505060006040518083038186803b15801561040757600080fd5b505afa15801561041b573d6000803e3d6000fd5b505050506040513d6000823e3d601f19601f82011682018060405250602081101561044557600080fd5b81019080805164010000000081111561045d57600080fd5b8281019050602081018481111561047357600080fd5b815185600182028301116401000000008211171561049057600080fd5b5050929190505050905091905056fea165627a7a723058200bd08a0db316865278195ceb5c7e7943e4e0aedb4ac74d589c3ef701262c206200296080604052600060015534801561001557600080fd5b506103ec806100256000396000f3fe60806040526004361061004c576000357c0100000000000000000000000000000000000000000000000000000000900463ffffffff1680630e5eeef7146100515780636b8ff57414610123575b600080fd5b34801561005d57600080fd5b506101216004803603604081101561007457600080fd5b810190808035906020019064010000000081111561009157600080fd5b8201836020820111156100a357600080fd5b803590602001918460018302840111640100000000831117156100c557600080fd5b91908080601f016020809104026020016040519081016040528093929190818152602001838380828437600081840152601f19601f820116905080830192505050505050509192919290803590602001909291905050506101d7565b005b34801561012f57600080fd5b5061015c6004803603602081101561014657600080fd5b8101908080359060200190929190505050610259565b6040518080602001828103825283818151815260200191508051906020019080838360005b8381101561019c578082015181840152602081019050610181565b50505050905090810190601f1680156101c95780820380516001836020036101000a031916815260200191505b509250505060405180910390f35b600060408051908101604052808481526020018381525090806001815401808255809150509060018203906000526020600020906002020160009091929091909150600082015181600001908051906020019061023592919061031b565b50602082015181600101555050506001600081548092919060010191905055505050565b606060008281548110151561026a57fe5b90600052602060002090600202016000018054600181600116156101000203166002900480601f01602080910402602001604051908101604052809291908181526020018280546001816001161561010002031660029004801561030f5780601f106102e45761010080835404028352916020019161030f565b820191906000526020600020905b8154815290600101906020018083116102f257829003601f168201915b50505050509050919050565b828054600181600116156101000203166002900490600052602060002090601f016020900481019282601f1061035c57805160ff191683800117855561038a565b8280016001018555821561038a579182015b8281111561038957825182559160200191906001019061036e565b5b509050610397919061039b565b5090565b6103bd91905b808211156103b95760008160009055506001016103a1565b5090565b9056fea165627a7a7230582082b2bdb70918fbd2c76cefa71bc395e064e809451b2d2d6e98aafdd5dee19d000029",
  "source": "pragma solidity ^0.5.0;\r\n\r\nimport \"./StudentProxy.sol\";\r\n\r\ncontract Main {\r\n\r\n    StudentProxy public studentStorage;\r\n\r\n    constructor() payable public {\r\n        studentStorage = new StudentProxy();\r\n    }\r\n\r\n    function addStudent(string memory _name, uint _id) public{\r\n        studentStorage.addStudent(_name, _id);\r\n    }\r\n\r\n    function getStudentName(uint _id) public view returns(string memory){\r\n        return studentStorage.getName(_id);\r\n    }\r\n\r\n}\r\n",
  "sourcePath": "C:/Users/ignac/Desktop/Code Repository/FBHackathon-2019/Blockchain/contracts/Main.sol",
  "compiler": {
    "name": "solc",
    "version": "0.5.0+commit.1d4f565a.Emscripten.clang"
  },
  "schemaVersion": "3.0.3",
  "updatedAt": "2019-03-15T05:11:15.360Z",
  "devdoc": {
    "methods": {}
  },
  "userdoc": {
    "methods": {}
  }
}