{
  "contractName": "StudentProxy",
  "abi": [
    {
      "constant": true,
      "inputs": [],
      "name": "studentCount",
      "outputs": [
        {
          "name": "",
          "type": "uint256"
        }
      ],
      "payable": false,
      "stateMutability": "view",
      "type": "function"
    },
    {
      "inputs": [],
      "payable": false,
      "stateMutability": "nonpayable",
      "type": "constructor"
    },
    {
      "constant": false,
      "inputs": [
        {
          "name": "_name",
          "type": "string"
        },
        {
          "name": "_id",
          "type": "uint256"
        }
      ],
      "name": "addStudent",
      "outputs": [],
      "payable": false,
      "stateMutability": "nonpayable",
      "type": "function"
    },
    {
      "constant": true,
      "inputs": [
        {
          "name": "student",
          "type": "uint256"
        }
      ],
      "name": "getName",
      "outputs": [
        {
          "name": "",
          "type": "string"
        }
      ],
      "payable": false,
      "stateMutability": "view",
      "type": "function"
    }
  ],
  "bytecode": "0x6080604052600060015534801561001557600080fd5b50610419806100256000396000f3fe608060405260043610610057576000357c0100000000000000000000000000000000000000000000000000000000900463ffffffff1680630e5eeef71461005c5780636b8ff5741461012e578063e581f9ee146101e2575b600080fd5b34801561006857600080fd5b5061012c6004803603604081101561007f57600080fd5b810190808035906020019064010000000081111561009c57600080fd5b8201836020820111156100ae57600080fd5b803590602001918460018302840111640100000000831117156100d057600080fd5b91908080601f016020809104026020016040519081016040528093929190818152602001838380828437600081840152601f19601f8201169050808301925050505050505091929192908035906020019092919050505061020d565b005b34801561013a57600080fd5b506101676004803603602081101561015157600080fd5b810190808035906020019092919050505061028b565b6040518080602001828103825283818151815260200191508051906020019080838360005b838110156101a757808201518184015260208101905061018c565b50505050905090810190601f1680156101d45780820380516001836020036101000a031916815260200191505b509250505060405180910390f35b3480156101ee57600080fd5b506101f7610342565b6040518082815260200191505060405180910390f35b60008060008381526020019081526020016000206000015414151561023157600080fd5b81600080838152602001908152602001600020600101908051906020019061025a929190610348565b5080600080838152602001908152602001600020600001819055506001600081548092919060010191905055505050565b60606000808381526020019081526020016000206001018054600181600116156101000203166002900480601f0160208091040260200160405190810160405280929190818152602001828054600181600116156101000203166002900480156103365780601f1061030b57610100808354040283529160200191610336565b820191906000526020600020905b81548152906001019060200180831161031957829003601f168201915b50505050509050919050565b60015481565b828054600181600116156101000203166002900490600052602060002090601f016020900481019282601f1061038957805160ff19168380011785556103b7565b828001600101855582156103b7579182015b828111156103b657825182559160200191906001019061039b565b5b5090506103c491906103c8565b5090565b6103ea91905b808211156103e65760008160009055506001016103ce565b5090565b9056fea165627a7a7230582057f803d192b773e700480ae31de265e5a6e92f86bff08cb42291eec26e7aec620029",
  "source": "pragma solidity ^0.5.0;\r\n\r\ncontract StudentProxy{\r\n\r\n    struct Course {\r\n        uint universityId;\r\n        uint courseId;\r\n        uint grade;\r\n    }\r\n\r\n    struct Student {\r\n        uint id;\r\n        string name;\r\n        //Course[] coursesActive;\r\n        //Course[] coursesPast;\r\n    }\r\n\r\n    mapping (uint => Student) students;\r\n    uint public studentCount = 0;\r\n\r\n    constructor() public {\r\n    }\r\n\r\n    function addStudent(string memory _name, uint _id) public {\r\n        require(students[_id].id == 0);\r\n        students[_id].name = _name;\r\n        students[_id].id = _id;\r\n        studentCount++;\r\n    }\r\n\r\n    function getName(uint student) public view returns (string memory) {\r\n        return students[student].name;\r\n    }\r\n\r\n}\r\n",
  "sourcePath": "C:\\Users\\ignac\\Desktop\\Code Repository\\FBHackathon-2019\\Blockchain\\contracts\\StudentProxy.sol",
  "compiler": {
    "name": "solc",
    "version": "0.5.0+commit.1d4f565a.Emscripten.clang"
  },
  "schemaVersion": "3.0.3",
  "updatedAt": "2019-03-16T03:51:50.706Z",
  "devdoc": {
    "methods": {}
  },
  "userdoc": {
    "methods": {}
  }
}