{
  "contractName": "UniversityProxy",
  "abi": [
    {
      "inputs": [],
      "payable": false,
      "stateMutability": "nonpayable",
      "type": "constructor"
    },
    {
      "constant": false,
      "inputs": [
        {
          "name": "_name",
          "type": "string"
        },
        {
          "name": "_id",
          "type": "uint256"
        }
      ],
      "name": "addUniversity",
      "outputs": [
        {
          "name": "",
          "type": "bool"
        }
      ],
      "payable": false,
      "stateMutability": "nonpayable",
      "type": "function"
    },
    {
      "constant": true,
      "inputs": [
        {
          "name": "_id",
          "type": "uint256"
        }
      ],
      "name": "getUniversityName",
      "outputs": [
        {
          "name": "",
          "type": "string"
        }
      ],
      "payable": false,
      "stateMutability": "view",
      "type": "function"
    }
  ],
  "bytecode": "0x608060405234801561001057600080fd5b506103c7806100206000396000f3fe60806040526004361061004c576000357c0100000000000000000000000000000000000000000000000000000000900463ffffffff16806348b4aa8414610051578063a8db51481461013b575b600080fd5b34801561005d57600080fd5b506101216004803603604081101561007457600080fd5b810190808035906020019064010000000081111561009157600080fd5b8201836020820111156100a357600080fd5b803590602001918460018302840111640100000000831117156100c557600080fd5b91908080601f016020809104026020016040519081016040528093929190818152602001838380828437600081840152601f19601f820116905080830192505050505050509192919290803590602001909291905050506101ef565b604051808215151515815260200191505060405180910390f35b34801561014757600080fd5b506101746004803603602081101561015e57600080fd5b810190808035906020019092919050505061023f565b6040518080602001828103825283818151815260200191508051906020019080838360005b838110156101b4578082015181840152602081019050610199565b50505050905090810190601f1680156101e15780820380516001836020036101000a031916815260200191505b509250505060405180910390f35b600082600080848152602001908152602001600020600001908051906020019061021a9291906102f6565b5081600080848152602001908152602001600020600101819055506001905092915050565b60606000808381526020019081526020016000206000018054600181600116156101000203166002900480601f0160208091040260200160405190810160405280929190818152602001828054600181600116156101000203166002900480156102ea5780601f106102bf576101008083540402835291602001916102ea565b820191906000526020600020905b8154815290600101906020018083116102cd57829003601f168201915b50505050509050919050565b828054600181600116156101000203166002900490600052602060002090601f016020900481019282601f1061033757805160ff1916838001178555610365565b82800160010185558215610365579182015b82811115610364578251825591602001919060010190610349565b5b5090506103729190610376565b5090565b61039891905b8082111561039457600081600090555060010161037c565b5090565b9056fea165627a7a7230582042b713d74507a95a5f3f93105a8c9c37f99f02ee240c501504b15c3390317d290029",
  "source": "pragma solidity ^0.5.0;\r\n\r\n// TODO: Change visibility of functions.\r\n// i.e: addUniversity should only be called from the contract owner\r\n\r\n\r\ncontract UniversityProxy {\r\n\r\n    struct Course {\r\n        string name;\r\n        uint id;\r\n        string[] teachers;\r\n        uint[] students;\r\n    }\r\n\r\n    struct University {\r\n        string name;\r\n        uint id;\r\n        mapping (uint => Course) courses;\r\n    }\r\n\r\n    mapping (uint => University) universities;\r\n\r\n    constructor() public {\r\n\r\n    }\r\n\r\n    function addUniversity(string memory _name, uint _id) public returns(bool){\r\n        universities[_id].name  = _name;\r\n        universities[_id].id = _id;\r\n        return true;\r\n    }\r\n\r\n    function getUniversityName(uint _id) public view returns (string memory){\r\n        return universities[_id].name;\r\n    }\r\n\r\n}\r\n",
  "sourcePath": "C:\\Users\\ignac\\Desktop\\Code Repository\\FBHackathon-2019\\Blockchain\\contracts\\UniversityProxy.sol",
  "compiler": {
    "name": "solc",
    "version": "0.5.0+commit.1d4f565a.Emscripten.clang"
  },
  "schemaVersion": "3.0.3",
  "updatedAt": "2019-03-16T03:51:50.702Z",
  "devdoc": {
    "methods": {}
  },
  "userdoc": {
    "methods": {}
  }
}